{
  "contractName": "Ownable",
  "abi": [
    {
      "constant": true,
      "inputs": [],
      "name": "owner",
      "outputs": [
        {
          "name": "",
          "type": "address"
        }
      ],
      "payable": false,
      "stateMutability": "view",
      "type": "function"
    },
    {
      "inputs": [],
      "payable": false,
      "stateMutability": "nonpayable",
      "type": "constructor"
    }
  ],
  "bytecode": "0x608060405234801561001057600080fd5b50336000806101000a81548173ffffffffffffffffffffffffffffffffffffffff021916908373ffffffffffffffffffffffffffffffffffffffff16021790555060326001819055504260028190555060e98061006e6000396000f3fe608060405260043610603f576000357c0100000000000000000000000000000000000000000000000000000000900463ffffffff1680638da5cb5b146044575b600080fd5b348015604f57600080fd5b5060566098565b604051808273ffffffffffffffffffffffffffffffffffffffff1673ffffffffffffffffffffffffffffffffffffffff16815260200191505060405180910390f35b6000809054906101000a900473ffffffffffffffffffffffffffffffffffffffff168156fea165627a7a7230582056294fa52007de81de19536fe0af31463d88d99c78c53c49370c50da2564ed410029",
  "source": "pragma solidity ^0.5.0;\n/**\n * @title Ownable\n * @dev The Ownable contract has an owner address, and provides basic authorization control\n * functions.\n */\ncontract Ownable {\n  address payable public owner;\n  uint tollAmount;\n  uint256 contractStart;\n  /**\n   * @dev The Ownable constructor sets the original `owner` of the contract to the sender account.\n   * The toll amount is set as 50 tokens, and the contract start time is set as time of deployment.\n   */\n   constructor() public {\n    owner = msg.sender;\n    tollAmount = 50;\n    contractStart = now;\n    \n  }\n  /**\n   * @dev Throws if called by any account other than the owner.\n   */\n  modifier onlyOwner() {\n    require(msg.sender == owner, \"Only owner can access this function!\");\n    _;\n  }\n}\n",
  "sourcePath": "/media/snoop/DATA/BlockChain/CED/Exercises Post CED/mar 1/smarttoll/SmartToll/contracts/Ownable.sol",
  "compiler": {
    "name": "solc",
    "version": "0.5.0+commit.1d4f565a.Emscripten.clang"
  },
  "schemaVersion": "3.0.1",
  "updatedAt": "2019-03-02T09:45:43.077Z",
  "devdoc": {
    "details": "The Ownable contract has an owner address, and provides basic authorization control functions.",
    "methods": {
      "constructor": {
        "details": "The Ownable constructor sets the original `owner` of the contract to the sender account. The toll amount is set as 50 tokens, and the contract start time is set as time of deployment."
      }
    },
    "title": "Ownable"
  },
  "userdoc": {
    "methods": {}
  }
}